:040000004BEF00F0D2
:100008004A82FACF07F0FBCF08F0E9CF09F0EACF30
:100018000AF0E1CF0BF0E2CF0CF0D9CF0DF0DACF38
:100028000EF0F3CF0FF0F4CF10F0F6CF11F0F7CFBA
:1000380012F0F8CF13F0F5CF14F0F2BAF2A403D00F
:1000480028EC04F006D0F2BC9DA003D09EB013ECBF
:1000580004F014C0F5FF13C0F8FF12C0F7FF11C079
:10006800F6FF10C0F4FF0FC0F3FF0EC0DAFF0DC09B
:10007800D9FF0CC0E2FF0BC0E1FF0AC0EAFF09C0CC
:10008800E9FF08C0FBFF07C0FAFF4A92110050EFD2
:1000980004F0000E2A6E000E2B6E000E2C6E000E61
:1000A8002D6E000E296E0F0120B784D020EE01F0CE
:1000B8002750D9262850DA22DECF15F0DECF16F0E9
:1000C800DECF17F0DECF18F027C0D9FF28C0DAFF3F
:1000D800DF50196E2A0E1A6E000E1B6E2B0E1C6E48
:1000E800000E1D6E2C0E1E6E000E1F6E2D0E206E45
:1000F800000E216EECEC01F02AC023FF2BC024FF78
:100108002CC021FF2DC022FF20EE05F02750D92654
:100118002850DA22DF500F01256F20EE06F0275015
:10012800D9262850DA22DF500F01266F20EE07F07B
:100138002750D9262850DA22DF500F01276F20EEEA
:1001480008F02750D9262850DA22DF500F01286FEF
:1001580020EE09F02750D9262850DA22DF500F0167
:10016800296F20EE0AF02750D9262850DA22DF50CE
:100178000F012A6F20EE0BF02750D9262850DA22DB
:10018800DF500F012B6F20EE0CF02750D926285096
:10019800DA22DF500F012C6F20EE0DF02750D92600
:1001A8002850DA22DF500F012D6F0F012087010E32
:1001B800296E12000F0110B784D020EE01F02750ED
:1001C800D9262850DA22DECF15F0DECF16F0DECFA2
:1001D80017F0DECF18F027C0D9FF28C0DAFFDF50AC
:1001E800196E2A0E1A6E000E1B6E2B0E1C6E000E58
:1001F8001D6E2C0E1E6E000E1F6E2D0E206E000E34
:10020800216EECEC01F02AC013FF2BC014FF2CC0A8
:1002180011FF2DC012FF20EE05F02750D9262850D7
:10022800DA22DF500F01156F20EE06F02750D9268D
:100238002850DA22DF500F01166F20EE07F0275002
:10024800D9262850DA22DF500F01176F20EE08F068
:100258002750D9262850DA22DF500F01186F20EED8
:1002680009F02750D9262850DA22DF500F01196FDC
:1002780020EE0AF02750D9262850DA22DF500F0145
:100288001A6F20EE0BF02750D9262850DA22DF50BB
:100298000F011B6F20EE0CF02750D9262850DA22C8
:1002A800DF500F011C6F20EE0DF02750D926285083
:1002B800DA22DF500F011D6F0F011087010E296E22
:1002C80012000F0100B7120020EE01F02750D926C6
:1002D8002850DA22DECF15F0DECF16F0DECF17F089
:1002E800DECF18F027C0D9FF28C0DAFFDF50196E1B
:1002F8002A0E1A6E000E1B6E2B0E1C6E000E1D6E43
:100308002C0E1E6E000E1F6E2D0E206E000E216E1E
:10031800ECEC01F02AC003FF2BC004FF2CC001FF46
:100328002DC002FF20EE05F02750D9262850DA22EA
:10033800DF500F01056F20EE06F02750D926285010
:10034800DA22DF500F01066F20EE07F02750D9267A
:100358002850DA22DF500F01076F20EE08F02750EF
:10036800D9262850DA22DF500F01086F20EE09F055
:100378002750D9262850DA22DF500F01096F20EEC6
:100388000AF02750D9262850DA22DF500F010A6FC9
:1003980020EE0BF02750D9262850DA22DF500F0123
:1003A8000B6F20EE0CF02750D9262850DA22DF50A8
:1003B8000F010C6F20EE0DF02750D9262850DA22B5
:1003C800DF500F010D6F0F010087010E296E12001B
:1003D800000E266E020E1918D8A481D01CC0D9FFB1
:1003E8001DC0DAFF15C0DFFF15C022F016C023F0CC
:1003F80017C024F018C025F023C022F024C023F031
:1004080025C024F0256A22C015F023C016F024C0A8
:1004180017F025C018F01AC0D9FF1BC0DAFF15C0A5
:10042800DFFF15C022F016C023F017C024F018C053
:1004380025F023C022F024C023F025C024F0256A2B
:1004480022C015F023C016F024C017F025C018F0FC
:100458001550030B266E15C022F016C023F017C0E6
:1004680024F018C025F0030ED890223623362436FF
:100478002536E82EF9D722C015F023C016F024C07F
:1004880017F025C018F01550E00B2624266E2650CC
:10049800080F266E2650EB0B20C0D9FF21C0DAFFCB
:1004A800DF6E15C022F016C023F017C024F018C064
:1004B80025F023C022F024C023F025C024F0256AAB
:1004C80022C015F023C016F024C017F025C018F07C
:1004D8001EC0D9FF1FC0DAFF15C0DFFF12001AC007
:1004E800D9FF1BC0DAFF000EDF6E1CC0D9FF1DC08C
:1004F800DAFF000EDF6E15C022F016C023F017C019
:1005080024F018C025F0050ED8902236233624365C
:100518002536E82EF9D722C015F023C016F024C0DE
:1005280017F025C018F020C0D9FF21C0DAFF15C088
:10053800DFFF15C022F016C023F017C024F018C042
:1005480025F023C022F024C023F025C024F0256A1A
:1005580022C015F023C016F024C017F025C018F0EB
:100568001EC0D9FF1FC0DAFF15C0DFFF1200800EC2
:100578006F6E6E50E00B800AD8A4FBD7000E726E27
:100588000E01FA690E01FB690E01F8690E01F9699D
:100598000E01FE690E01FF690E01FC690E01FD697D
:1005A800000E0E01E26F000E0E01E36FC80E0E0181
:1005B800E06F000E0E01E16F000E0E01E66F000EF7
:1005C8000E01E76F000E0E01E46F000E0E01E56FDD
:1005D800000E0E01EA6F000E0E01EB6F000E0E0109
:1005E800E86F000E0E01E96F000E0E01EE6F000EAF
:1005F8000E01EF6F000E0E01EC6F000E0E01ED6F95
:10060800000E0E01F26F000E0E01F36F000E0E01C8
:10061800F06F000E0E01F16F000E0E01F66F000E66
:100628000E01F76F000E0E01F46F000E0E01F56F4C
:10063800000E0E01436F980E0E01446F010E0E015D
:10064800456F000E6F6E6ECF15F0E00E1516D8B41C
:100658001200F9D75DEC04F07080708A608A609CA3
:10066800609460907A0E156E080E166E78EC04F0A1
:10067800FA0E156E080E166E73EC04F024D0F28C88
:100688003350D8B4FDD7400E2E6E060E2F6E000ED6
:10069800306E000E316EA1EC03F0420E2E6E060E87
:1006A8002F6E000E306E000E316EA1EC03F0410E7D
:1006B8002E6E060E2F6E000E306E000E316EA1ECFF
:1006C80003F0000E336EF28EDAD7000E066E02AE1D
:1006D80006D0016C021ED8B0022A010E066E04AEC6
:1006E80004D0036C041ED8B0042A03500410D8B4F4
:1006F80018D0010E056E04D0D89003360436052AAA
:1007080004AEFAD70350015C04500258D8A004D0B4
:100718000350015E0450025AD89004320332052E69
:10072800F1D70650D8B404D0016C021ED8B0022A02
:1007380001C001F002C002F0120032C03AF032C02B
:100748003BF032C03CF032C03DF032C03EF032C027
:100758003FF032C040F032C041F02EC035F02FC01B
:1007680036F030C037F031C038F0080E396E010E5F
:10077800346E340E276E000E286E4DEC00F0120019
:10078800000ECD6E000EAA6E630ECF6EC00ECE6E3A
:10079800CE50CFCF17F0186A17C018F0176A171085
:1007A800446E1850456E9E909D80100E156E090E71
:1007B800166E73EC04F082EC04F01200170ED56E7E
:1007C800F00ED76EBD0ED66ED650D7CF17F0186A7A
:1007D80017C018F0176A1710466E1850476EF29433
:1007E800F28A120E156E090E166E78EC04F084EC7F
:1007F80004F01200000E896E000E8A6E000E8B6ED9
:10080800EF0E926ECF0E936EBF0E946E1F0E0F01F9
:100818005D6F070E0F015C6F0F015B6912009E9000
:100828004550CF6E44C0CEFF42504310D8B412009A
:1008380001D812000500FA6E4250FD6E4350FE6E5C
:10084800F850FF6EFA501200F2944750D76E46C027
:10085800D6FF48504910D8B4120001D8120005003C
:10086800FA6E4850FD6E4950FE6EF850FF6EFA5011
:100878001200F29EF29C010E3224016E026A000EF2
:100888000222000E046E7F0E036E69EC03F0015025
:10089800326EF28EF28C120000EE32F0100EEE6A1A
:1008A800E806FDE14A904A92000EF86E00012EEF2C
:1008B80003F086EC04F0FEEC03F06AEC04F0C4EC00
:1008C80003F0E2EC03F0BBEC02F01200700ED36E02
:1008D800000ED26E000E9B6E000E9A6E120015C0AE
:1008E80042F016C043F0120015C048F016C049F097
:1008F8001200F29EF29C010E336E1200CD8012009F
:0C090800D58E1200D09E120012001200CA
:020000040020DA
:08000000FFFFFFFFFFFFFFFF00
:020000040030CA
:0E00000015087F7CFF8891FF0FC00FE00F40B6
:00000001FF
